S0190000616464726573735F6D61705F6E696F73322E737265633E
S10F00003400800004CA80103A6800102C
S113002004FCFFDE150000DE3A313100260100C079
S113003004FF7FEF150140DF1502C0DF150380DDEB
S11300403A3131001E0100C0060300008C0080C557
S1130050260100B000200000170000DE170140DF79
S11300601702C0DF170380DD0404C0DE3A0880EF06
S113020004FDFFDE150080DD1501C0DD1502C0DF31
S113021034C8BF05041480B53703C0B53503C0B571
S1130220370040AC4C0000BC260A008004000001EA
S1130230803000003A70A48A260300903AF04414F7
S1130240350080A8062B00003AB04414350080A87D
S1130250062800008C0000BC260B0080440000012E
S1130260803000003A9204103A70E48A2603009029
S11302703AF04414350080A8061E00003AB0441435
S1130280350080A8061B00000C0100BC260B008072
S113029084000001803000003A9404103A70248BEA
S11302A0260300903AF04414350080A8061100009B
S11302B03AB04414350080A8060E00000C0200BCBD
S11302C0260B0080C4000001803000003A96041020
S11302D03A70648B260300903AF04414350080A8E9
S11302E0060400003AB04414350080A8060100005A
S11302F0350000A8170080DD1701C0DD1702C0DF3C
S11303000403C0DE3A2800F83400C00304C7C07BED
S11303103A881F79070080783A2800F83F065B4F37
S1130320666D7D077F6700003400C106C4FFFFDEF1
S113033034C87F05040840AD350000A834008002AD
S1130340C43F80527400C00204C0FF5AF43F00034B
S11303500400006334C07F030400406B34C8BF054D
S1130360041480B5C403C0053502C0B58400C005BB
S1130370FA7001B84400C0053A7001B806FF3F00A6
S9030328D1
