S0190000616464726573735F6D61705F6E696F73322E737265633E
S10F00003400800004A680103A68001050
S113002004FCFFDE150000DE3A313100260100C079
S113003004FF7FEF150140DF1502C0DF150380DDEB
S11300403A3131001E0100C0060700008C0080C553
S1130050260200B000240000060300004C0080C506
S1130060260100B000200000170000DE170140DF69
S11300701702C0DF170380DD0404C0DE3A0880EFF6
S113020004FDFFDE150080DD1501C0DD1502C0DF31
S113021034C83F05040008A5350000A04400C018F8
S1130220160100193A8807003500C0A8170080DDC0
S11302301701C0DD1702C0DF0403C0DE3A2800F84E
S113024004FDFFDE150080DD1501C0DD1502C0DFF1
S113025034C8BF05041480B53703C0B53503C0B531
S1130260370040A48C00408C260600B81E0300888A
S1130270C4010003250100A306020000C402000318
S1130280250100A3170080DD1701C0DD1702C0DFC0
S11302900403C0DE3A2800F83400C106C4FFFFDEC0
S11302A03A88070034C83F05040008A5B47D01035B
S11302B0044038632D0200A33AD418602D0300A330
S11302C0C40200032D0100A334C87F05040040AD1F
S11302D0C4FF0001350000A834C8BF05041480B56C
S11302E0C403C0053502C0B5C400C005FA7001B826
S10F02F04400C0053A7001B806FF3F004E
S903029862
